{
  "_format": "hh-sol-artifact-1",
  "contractName": "CarbonCredit",
  "sourceName": "contracts/CarbonCredit.sol",
  "abi": [
    {
      "inputs": [
        {
          "internalType": "address",
          "name": "initialOwner",
          "type": "address"
        }
      ],
      "stateMutability": "nonpayable",
      "type": "constructor"
    },
    {
      "inputs": [
        {
          "internalType": "address",
          "name": "sender",
          "type": "address"
        },
        {
          "internalType": "uint256",
          "name": "balance",
          "type": "uint256"
        },
        {
          "internalType": "uint256",
          "name": "needed",
          "type": "uint256"
        },
        {
          "internalType": "uint256",
          "name": "tokenId",
          "type": "uint256"
        }
      ],
      "name": "ERC1155InsufficientBalance",
      "type": "error"
    },
    {
      "inputs": [
        {
          "internalType": "address",
          "name": "approver",
          "type": "address"
        }
      ],
      "name": "ERC1155InvalidApprover",
      "type": "error"
    },
    {
      "inputs": [
        {
          "internalType": "uint256",
          "name": "idsLength",
          "type": "uint256"
        },
        {
          "internalType": "uint256",
          "name": "valuesLength",
          "type": "uint256"
        }
      ],
      "name": "ERC1155InvalidArrayLength",
      "type": "error"
    },
    {
      "inputs": [
        {
          "internalType": "address",
          "name": "operator",
          "type": "address"
        }
      ],
      "name": "ERC1155InvalidOperator",
      "type": "error"
    },
    {
      "inputs": [
        {
          "internalType": "address",
          "name": "receiver",
          "type": "address"
        }
      ],
      "name": "ERC1155InvalidReceiver",
      "type": "error"
    },
    {
      "inputs": [
        {
          "internalType": "address",
          "name": "sender",
          "type": "address"
        }
      ],
      "name": "ERC1155InvalidSender",
      "type": "error"
    },
    {
      "inputs": [
        {
          "internalType": "address",
          "name": "operator",
          "type": "address"
        },
        {
          "internalType": "address",
          "name": "owner",
          "type": "address"
        }
      ],
      "name": "ERC1155MissingApprovalForAll",
      "type": "error"
    },
    {
      "inputs": [
        {
          "internalType": "address",
          "name": "owner",
          "type": "address"
        }
      ],
      "name": "OwnableInvalidOwner",
      "type": "error"
    },
    {
      "inputs": [
        {
          "internalType": "address",
          "name": "account",
          "type": "address"
        }
      ],
      "name": "OwnableUnauthorizedAccount",
      "type": "error"
    },
    {
      "anonymous": false,
      "inputs": [
        {
          "indexed": true,
          "internalType": "address",
          "name": "account",
          "type": "address"
        },
        {
          "indexed": true,
          "internalType": "address",
          "name": "operator",
          "type": "address"
        },
        {
          "indexed": false,
          "internalType": "bool",
          "name": "approved",
          "type": "bool"
        }
      ],
      "name": "ApprovalForAll",
      "type": "event"
    },
    {
      "anonymous": false,
      "inputs": [
        {
          "indexed": true,
          "internalType": "uint256",
          "name": "projectId",
          "type": "uint256"
        },
        {
          "indexed": true,
          "internalType": "address",
          "name": "to",
          "type": "address"
        },
        {
          "indexed": false,
          "internalType": "uint256",
          "name": "amount",
          "type": "uint256"
        }
      ],
      "name": "CreditsMinted",
      "type": "event"
    },
    {
      "anonymous": false,
      "inputs": [
        {
          "indexed": true,
          "internalType": "address",
          "name": "previousOwner",
          "type": "address"
        },
        {
          "indexed": true,
          "internalType": "address",
          "name": "newOwner",
          "type": "address"
        }
      ],
      "name": "OwnershipTransferred",
      "type": "event"
    },
    {
      "anonymous": false,
      "inputs": [
        {
          "indexed": true,
          "internalType": "uint256",
          "name": "projectId",
          "type": "uint256"
        },
        {
          "indexed": false,
          "internalType": "string",
          "name": "location",
          "type": "string"
        },
        {
          "indexed": false,
          "internalType": "uint256",
          "name": "co2Kg",
          "type": "uint256"
        },
        {
          "indexed": false,
          "internalType": "uint8",
          "name": "confidence",
          "type": "uint8"
        },
        {
          "indexed": false,
          "internalType": "string",
          "name": "aiProofHash",
          "type": "string"
        }
      ],
      "name": "ProjectVerified",
      "type": "event"
    },
    {
      "anonymous": false,
      "inputs": [
        {
          "indexed": true,
          "internalType": "address",
          "name": "operator",
          "type": "address"
        },
        {
          "indexed": true,
          "internalType": "address",
          "name": "from",
          "type": "address"
        },
        {
          "indexed": true,
          "internalType": "address",
          "name": "to",
          "type": "address"
        },
        {
          "indexed": false,
          "internalType": "uint256[]",
          "name": "ids",
          "type": "uint256[]"
        },
        {
          "indexed": false,
          "internalType": "uint256[]",
          "name": "values",
          "type": "uint256[]"
        }
      ],
      "name": "TransferBatch",
      "type": "event"
    },
    {
      "anonymous": false,
      "inputs": [
        {
          "indexed": true,
          "internalType": "address",
          "name": "operator",
          "type": "address"
        },
        {
          "indexed": true,
          "internalType": "address",
          "name": "from",
          "type": "address"
        },
        {
          "indexed": true,
          "internalType": "address",
          "name": "to",
          "type": "address"
        },
        {
          "indexed": false,
          "internalType": "uint256",
          "name": "id",
          "type": "uint256"
        },
        {
          "indexed": false,
          "internalType": "uint256",
          "name": "value",
          "type": "uint256"
        }
      ],
      "name": "TransferSingle",
      "type": "event"
    },
    {
      "anonymous": false,
      "inputs": [
        {
          "indexed": false,
          "internalType": "string",
          "name": "value",
          "type": "string"
        },
        {
          "indexed": true,
          "internalType": "uint256",
          "name": "id",
          "type": "uint256"
        }
      ],
      "name": "URI",
      "type": "event"
    },
    {
      "anonymous": false,
      "inputs": [
        {
          "indexed": true,
          "internalType": "address",
          "name": "verifier",
          "type": "address"
        }
      ],
      "name": "VerifierAdded",
      "type": "event"
    },
    {
      "anonymous": false,
      "inputs": [
        {
          "indexed": true,
          "internalType": "address",
          "name": "verifier",
          "type": "address"
        }
      ],
      "name": "VerifierRemoved",
      "type": "event"
    },
    {
      "inputs": [],
      "name": "CREDIT_TOKEN_ID",
      "outputs": [
        {
          "internalType": "uint256",
          "name": "",
          "type": "uint256"
        }
      ],
      "stateMutability": "view",
      "type": "function"
    },
    {
      "inputs": [
        {
          "internalType": "address",
          "name": "verifier",
          "type": "address"
        }
      ],
      "name": "addVerifier",
      "outputs": [],
      "stateMutability": "nonpayable",
      "type": "function"
    },
    {
      "inputs": [
        {
          "internalType": "address",
          "name": "account",
          "type": "address"
        },
        {
          "internalType": "uint256",
          "name": "id",
          "type": "uint256"
        }
      ],
      "name": "balanceOf",
      "outputs": [
        {
          "internalType": "uint256",
          "name": "",
          "type": "uint256"
        }
      ],
      "stateMutability": "view",
      "type": "function"
    },
    {
      "inputs": [
        {
          "internalType": "address[]",
          "name": "accounts",
          "type": "address[]"
        },
        {
          "internalType": "uint256[]",
          "name": "ids",
          "type": "uint256[]"
        }
      ],
      "name": "balanceOfBatch",
      "outputs": [
        {
          "internalType": "uint256[]",
          "name": "",
          "type": "uint256[]"
        }
      ],
      "stateMutability": "view",
      "type": "function"
    },
    {
      "inputs": [
        {
          "internalType": "address",
          "name": "account",
          "type": "address"
        },
        {
          "internalType": "address",
          "name": "operator",
          "type": "address"
        }
      ],
      "name": "isApprovedForAll",
      "outputs": [
        {
          "internalType": "bool",
          "name": "",
          "type": "bool"
        }
      ],
      "stateMutability": "view",
      "type": "function"
    },
    {
      "inputs": [
        {
          "internalType": "address",
          "name": "verifier",
          "type": "address"
        }
      ],
      "name": "isVerifier",
      "outputs": [
        {
          "internalType": "bool",
          "name": "",
          "type": "bool"
        }
      ],
      "stateMutability": "view",
      "type": "function"
    },
    {
      "inputs": [
        {
          "internalType": "uint256",
          "name": "projectId",
          "type": "uint256"
        },
        {
          "internalType": "address",
          "name": "to",
          "type": "address"
        },
        {
          "internalType": "uint256",
          "name": "amount",
          "type": "uint256"
        }
      ],
      "name": "mintCredits",
      "outputs": [],
      "stateMutability": "nonpayable",
      "type": "function"
    },
    {
      "inputs": [],
      "name": "owner",
      "outputs": [
        {
          "internalType": "address",
          "name": "",
          "type": "address"
        }
      ],
      "stateMutability": "view",
      "type": "function"
    },
    {
      "inputs": [],
      "name": "projectCounter",
      "outputs": [
        {
          "internalType": "uint256",
          "name": "",
          "type": "uint256"
        }
      ],
      "stateMutability": "view",
      "type": "function"
    },
    {
      "inputs": [
        {
          "internalType": "uint256",
          "name": "",
          "type": "uint256"
        }
      ],
      "name": "projectCreditsMinted",
      "outputs": [
        {
          "internalType": "uint256",
          "name": "",
          "type": "uint256"
        }
      ],
      "stateMutability": "view",
      "type": "function"
    },
    {
      "inputs": [
        {
          "internalType": "uint256",
          "name": "",
          "type": "uint256"
        }
      ],
      "name": "projects",
      "outputs": [
        {
          "internalType": "string",
          "name": "location",
          "type": "string"
        },
        {
          "internalType": "uint256",
          "name": "areaHectares",
          "type": "uint256"
        },
        {
          "internalType": "uint256",
          "name": "co2Kg",
          "type": "uint256"
        },
        {
          "internalType": "uint8",
          "name": "confidence",
          "type": "uint8"
        },
        {
          "internalType": "string",
          "name": "aiProofHash",
          "type": "string"
        },
        {
          "internalType": "bool",
          "name": "verified",
          "type": "bool"
        }
      ],
      "stateMutability": "view",
      "type": "function"
    },
    {
      "inputs": [
        {
          "internalType": "address",
          "name": "verifier",
          "type": "address"
        }
      ],
      "name": "removeVerifier",
      "outputs": [],
      "stateMutability": "nonpayable",
      "type": "function"
    },
    {
      "inputs": [],
      "name": "renounceOwnership",
      "outputs": [],
      "stateMutability": "nonpayable",
      "type": "function"
    },
    {
      "inputs": [
        {
          "internalType": "address",
          "name": "from",
          "type": "address"
        },
        {
          "internalType": "address",
          "name": "to",
          "type": "address"
        },
        {
          "internalType": "uint256[]",
          "name": "ids",
          "type": "uint256[]"
        },
        {
          "internalType": "uint256[]",
          "name": "values",
          "type": "uint256[]"
        },
        {
          "internalType": "bytes",
          "name": "data",
          "type": "bytes"
        }
      ],
      "name": "safeBatchTransferFrom",
      "outputs": [],
      "stateMutability": "nonpayable",
      "type": "function"
    },
    {
      "inputs": [
        {
          "internalType": "address",
          "name": "from",
          "type": "address"
        },
        {
          "internalType": "address",
          "name": "to",
          "type": "address"
        },
        {
          "internalType": "uint256",
          "name": "id",
          "type": "uint256"
        },
        {
          "internalType": "uint256",
          "name": "value",
          "type": "uint256"
        },
        {
          "internalType": "bytes",
          "name": "data",
          "type": "bytes"
        }
      ],
      "name": "safeTransferFrom",
      "outputs": [],
      "stateMutability": "nonpayable",
      "type": "function"
    },
    {
      "inputs": [
        {
          "internalType": "address",
          "name": "operator",
          "type": "address"
        },
        {
          "internalType": "bool",
          "name": "approved",
          "type": "bool"
        }
      ],
      "name": "setApprovalForAll",
      "outputs": [],
      "stateMutability": "nonpayable",
      "type": "function"
    },
    {
      "inputs": [
        {
          "internalType": "bytes4",
          "name": "interfaceId",
          "type": "bytes4"
        }
      ],
      "name": "supportsInterface",
      "outputs": [
        {
          "internalType": "bool",
          "name": "",
          "type": "bool"
        }
      ],
      "stateMutability": "view",
      "type": "function"
    },
    {
      "inputs": [
        {
          "internalType": "address",
          "name": "newOwner",
          "type": "address"
        }
      ],
      "name": "transferOwnership",
      "outputs": [],
      "stateMutability": "nonpayable",
      "type": "function"
    },
    {
      "inputs": [
        {
          "internalType": "uint256",
          "name": "id",
          "type": "uint256"
        }
      ],
      "name": "uri",
      "outputs": [
        {
          "internalType": "string",
          "name": "",
          "type": "string"
        }
      ],
      "stateMutability": "pure",
      "type": "function"
    },
    {
      "inputs": [
        {
          "internalType": "string",
          "name": "location",
          "type": "string"
        },
        {
          "internalType": "uint256",
          "name": "areaHectares",
          "type": "uint256"
        },
        {
          "internalType": "uint256",
          "name": "co2Kg",
          "type": "uint256"
        },
        {
          "internalType": "uint8",
          "name": "confidence",
          "type": "uint8"
        },
        {
          "internalType": "string",
          "name": "aiProofHash",
          "type": "string"
        }
      ],
      "name": "verifyProject",
      "outputs": [
        {
          "internalType": "uint256",
          "name": "",
          "type": "uint256"
        }
      ],
      "stateMutability": "nonpayable",
      "type": "function"
    }
  ],
  "bytecode": "0x60806040523480156200001157600080fd5b5060405162003c8c38038062003c8c83398181016040528101906200003791906200028f565b806040518060600160405280602a815260200162003c62602a913962000063816200014a60201b60201c565b50600073ffffffffffffffffffffffffffffffffffffffff168173ffffffffffffffffffffffffffffffffffffffff1603620000d95760006040517f1e4fbdf7000000000000000000000000000000000000000000000000000000008152600401620000d09190620002d2565b60405180910390fd5b620000ea816200015f60201b60201c565b506001600460008373ffffffffffffffffffffffffffffffffffffffff1673ffffffffffffffffffffffffffffffffffffffff16815260200190815260200160002060006101000a81548160ff0219169083151502179055505062000650565b80600290816200015b919062000569565b5050565b6000600360009054906101000a900473ffffffffffffffffffffffffffffffffffffffff16905081600360006101000a81548173ffffffffffffffffffffffffffffffffffffffff021916908373ffffffffffffffffffffffffffffffffffffffff1602179055508173ffffffffffffffffffffffffffffffffffffffff168173ffffffffffffffffffffffffffffffffffffffff167f8be0079c531659141344cd1fd0a4f28419497f9722a3daafe3b4186f6b6457e060405160405180910390a35050565b600080fd5b600073ffffffffffffffffffffffffffffffffffffffff82169050919050565b600062000257826200022a565b9050919050565b62000269816200024a565b81146200027557600080fd5b50565b60008151905062000289816200025e565b92915050565b600060208284031215620002a857620002a762000225565b5b6000620002b88482850162000278565b91505092915050565b620002cc816200024a565b82525050565b6000602082019050620002e96000830184620002c1565b92915050565b600081519050919050565b7f4e487b7100000000000000000000000000000000000000000000000000000000600052604160045260246000fd5b7f4e487b7100000000000000000000000000000000000000000000000000000000600052602260045260246000fd5b600060028204905060018216806200037157607f821691505b60208210810362000387576200038662000329565b5b50919050565b60008190508160005260206000209050919050565b60006020601f8301049050919050565b600082821b905092915050565b600060088302620003f17fffffffffffffffffffffffffffffffffffffffffffffffffffffffffffffffff82620003b2565b620003fd8683620003b2565b95508019841693508086168417925050509392505050565b6000819050919050565b6000819050919050565b60006200044a620004446200043e8462000415565b6200041f565b62000415565b9050919050565b6000819050919050565b620004668362000429565b6200047e620004758262000451565b848454620003bf565b825550505050565b600090565b6200049562000486565b620004a28184846200045b565b505050565b5b81811015620004ca57620004be6000826200048b565b600181019050620004a8565b5050565b601f8211156200051957620004e3816200038d565b620004ee84620003a2565b81016020851015620004fe578190505b620005166200050d85620003a2565b830182620004a7565b50505b505050565b600082821c905092915050565b60006200053e600019846008026200051e565b1980831691505092915050565b60006200055983836200052b565b9150826002028217905092915050565b6200057482620002ef565b67ffffffffffffffff81111562000590576200058f620002fa565b5b6200059c825462000358565b620005a9828285620004ce565b600060209050601f831160018114620005e15760008415620005cc578287015190505b620005d885826200054b565b86555062000648565b601f198416620005f1866200038d565b60005b828110156200061b57848901518255600182019150602085019450602081019050620005f4565b868310156200063b578489015162000637601f8916826200052b565b8355505b6001600288020188555050505b505050505050565b61360280620006606000396000f3fe608060405234801561001057600080fd5b506004361061012b5760003560e01c8063798445fa116100ad578063ca2dfd0a11610071578063ca2dfd0a1461036b578063e985e9c514610387578063f242432a146103b7578063f2fde38b146103d3578063f8a518ed146103ef5761012b565b8063798445fa146102db5780638da5cb5b146102f95780639000b3d614610317578063a22cb46514610333578063a4ad64a61461034f5761012b565b80632eb2c2d6116100f45780632eb2c2d61461022557806333105218146102415780634e1273f414610271578063715018a6146102a157806377f89c2d146102ab5761012b565b8062fdd58e1461013057806301ffc9a7146101605780630e89341c14610190578063107046bd146101c05780632ad3ff49146101f5575b600080fd5b61014a600480360381019061014591906121bd565b61040d565b604051610157919061220c565b60405180910390f35b61017a6004803603810190610175919061227f565b610467565b60405161018791906122c7565b60405180910390f35b6101aa60048036038101906101a591906122e2565b610549565b6040516101b7919061239f565b60405180910390f35b6101da60048036038101906101d591906122e2565b61057a565b6040516101ec969594939291906123dd565b60405180910390f35b61020f600480360381019061020a91906124dd565b6106e0565b60405161021c919061220c565b60405180910390f35b61023f600480360381019061023a919061278c565b610977565b005b61025b6004803603810190610256919061285b565b610a1f565b60405161026891906122c7565b60405180910390f35b61028b6004803603810190610286919061294b565b610a75565b6040516102989190612a81565b60405180910390f35b6102a9610b84565b005b6102c560048036038101906102c091906122e2565b610b98565b6040516102d2919061220c565b60405180910390f35b6102e3610bb0565b6040516102f0919061220c565b60405180910390f35b610301610bb5565b60405161030e9190612ab2565b60405180910390f35b610331600480360381019061032c919061285b565b610bdf565b005b61034d60048036038101906103489190612af9565b610c85565b005b61036960048036038101906103649190612b39565b610c9b565b005b6103856004803603810190610380919061285b565b610e9b565b005b6103a1600480360381019061039c9190612b8c565b610f41565b6040516103ae91906122c7565b60405180910390f35b6103d160048036038101906103cc9190612bcc565b610fd5565b005b6103ed60048036038101906103e8919061285b565b61107d565b005b6103f7611103565b604051610404919061220c565b60405180910390f35b600080600083815260200190815260200160002060008473ffffffffffffffffffffffffffffffffffffffff1673ffffffffffffffffffffffffffffffffffffffff16815260200190815260200160002054905092915050565b60007fd9b67a26000000000000000000000000000000000000000000000000000000007bffffffffffffffffffffffffffffffffffffffffffffffffffffffff1916827bffffffffffffffffffffffffffffffffffffffffffffffffffffffff1916148061053257507f0e89341c000000000000000000000000000000000000000000000000000000007bffffffffffffffffffffffffffffffffffffffffffffffffffffffff1916827bffffffffffffffffffffffffffffffffffffffffffffffffffffffff1916145b80610542575061054182611109565b5b9050919050565b606061055482611173565b6040516020016105649190612d5d565b6040516020818303038152906040529050919050565b600660205280600052604060002060009150905080600001805461059d90612db9565b80601f01602080910402602001604051908101604052809291908181526020018280546105c990612db9565b80156106165780601f106105eb57610100808354040283529160200191610616565b820191906000526020600020905b8154815290600101906020018083116105f957829003601f168201915b5050505050908060010154908060020154908060030160009054906101000a900460ff169080600401805461064a90612db9565b80601f016020809104026020016040519081016040528092919081815260200182805461067690612db9565b80156106c35780601f10610698576101008083540402835291602001916106c3565b820191906000526020600020905b8154815290600101906020018083116106a657829003601f168201915b5050505050908060050160009054906101000a900460ff16905086565b6000600460003373ffffffffffffffffffffffffffffffffffffffff1673ffffffffffffffffffffffffffffffffffffffff16815260200190815260200160002060009054906101000a900460ff1661076e576040517f08c379a000000000000000000000000000000000000000000000000000000000815260040161076590612e36565b60405180910390fd5b60468460ff1610156107b5576040517f08c379a00000000000000000000000000000000000000000000000000000000081526004016107ac90612ea2565b60405180910390fd5b600560008154809291906107c890612ef1565b9190505550600060055490506040518060c001604052808a8a8080601f016020809104026020016040519081016040528093929190818152602001838380828437600081840152601f19601f8201169050808301925050505050505081526020018881526020018781526020018660ff16815260200185858080601f016020809104026020016040519081016040528093929190818152602001838380828437600081840152601f19601f820116905080830192505050505050508152602001600115158152506006600083815260200190815260200160002060008201518160000190816108b791906130e5565b50602082015181600101556040820151816002015560608201518160030160006101000a81548160ff021916908360ff160217905550608082015181600401908161090291906130e5565b5060a08201518160050160006101000a81548160ff021916908315150217905550905050807f891f3620dd4de70ce507e16f9a88d37eefa3e57434d07cdd5b6fff46e7b91bc68a8a89898989604051610960969594939291906131e4565b60405180910390a280915050979650505050505050565b6000610981611241565b90508073ffffffffffffffffffffffffffffffffffffffff168673ffffffffffffffffffffffffffffffffffffffff16141580156109c657506109c48682610f41565b155b15610a0a5780866040517fe237d922000000000000000000000000000000000000000000000000000000008152600401610a0192919061323b565b60405180910390fd5b610a178686868686611249565b505050505050565b6000600460008373ffffffffffffffffffffffffffffffffffffffff1673ffffffffffffffffffffffffffffffffffffffff16815260200190815260200160002060009054906101000a900460ff169050919050565b60608151835114610ac157815183516040517f5b059991000000000000000000000000000000000000000000000000000000008152600401610ab8929190613264565b60405180910390fd5b6000835167ffffffffffffffff811115610ade57610add612599565b5b604051908082528060200260200182016040528015610b0c5781602001602082028036833780820191505090505b50905060005b8451811015610b7957610b49610b31828761134190919063ffffffff16565b610b44838761135590919063ffffffff16565b61040d565b828281518110610b5c57610b5b61328d565b5b60200260200101818152505080610b7290612ef1565b9050610b12565b508091505092915050565b610b8c611369565b610b9660006113f0565b565b60076020528060005260406000206000915090505481565b600181565b6000600360009054906101000a900473ffffffffffffffffffffffffffffffffffffffff16905090565b610be7611369565b6001600460008373ffffffffffffffffffffffffffffffffffffffff1673ffffffffffffffffffffffffffffffffffffffff16815260200190815260200160002060006101000a81548160ff0219169083151502179055508073ffffffffffffffffffffffffffffffffffffffff167f6d05492139c5ea989514a5d2150c028041e5c087e2a39967f67dc7d2655adb8160405160405180910390a250565b610c97610c90611241565b83836114b6565b5050565b600460003373ffffffffffffffffffffffffffffffffffffffff1673ffffffffffffffffffffffffffffffffffffffff16815260200190815260200160002060009054906101000a900460ff16610d27576040517f08c379a0000000000000000000000000000000000000000000000000000000008152600401610d1e90612e36565b60405180910390fd5b6006600084815260200190815260200160002060050160009054906101000a900460ff16610d8a576040517f08c379a0000000000000000000000000000000000000000000000000000000008152600401610d8190613308565b60405180910390fd5b6006600084815260200190815260200160002060020154816007600086815260200190815260200160002054610dc09190613328565b1115610e01576040517f08c379a0000000000000000000000000000000000000000000000000000000008152600401610df8906133a8565b60405180910390fd5b80600760008581526020019081526020016000206000828254610e249190613328565b92505081905550610e478260018360405180602001604052806000815250611626565b8173ffffffffffffffffffffffffffffffffffffffff16837f921c08e825069e4d980f75f8c9d39ab505649f98d18f620f19759e16f0e3ba6b83604051610e8e919061220c565b60405180910390a3505050565b610ea3611369565b6000600460008373ffffffffffffffffffffffffffffffffffffffff1673ffffffffffffffffffffffffffffffffffffffff16815260200190815260200160002060006101000a81548160ff0219169083151502179055508073ffffffffffffffffffffffffffffffffffffffff167f44a3cd4eb5cc5748f6169df057b1cb2ae4c383e87cd94663c430e095d4cba42460405160405180910390a250565b6000600160008473ffffffffffffffffffffffffffffffffffffffff1673ffffffffffffffffffffffffffffffffffffffff16815260200190815260200160002060008373ffffffffffffffffffffffffffffffffffffffff1673ffffffffffffffffffffffffffffffffffffffff16815260200190815260200160002060009054906101000a900460ff16905092915050565b6000610fdf611241565b90508073ffffffffffffffffffffffffffffffffffffffff168673ffffffffffffffffffffffffffffffffffffffff161415801561102457506110228682610f41565b155b156110685780866040517fe237d92200000000000000000000000000000000000000000000000000000000815260040161105f92919061323b565b60405180910390fd5b61107586868686866116bf565b505050505050565b611085611369565b600073ffffffffffffffffffffffffffffffffffffffff168173ffffffffffffffffffffffffffffffffffffffff16036110f75760006040517f1e4fbdf70000000000000000000000000000000000000000000000000000000081526004016110ee9190612ab2565b60405180910390fd5b611100816113f0565b50565b60055481565b60007f01ffc9a7000000000000000000000000000000000000000000000000000000007bffffffffffffffffffffffffffffffffffffffffffffffffffffffff1916827bffffffffffffffffffffffffffffffffffffffffffffffffffffffff1916149050919050565b606060006001611182846117ca565b01905060008167ffffffffffffffff8111156111a1576111a0612599565b5b6040519080825280601f01601f1916602001820160405280156111d35781602001600182028036833780820191505090505b509050600082602083010190505b600115611236578080600190039150507f3031323334353637383961626364656600000000000000000000000000000000600a86061a8153600a858161122a576112296133c8565b5b049450600085036111e1575b819350505050919050565b600033905090565b600073ffffffffffffffffffffffffffffffffffffffff168473ffffffffffffffffffffffffffffffffffffffff16036112bb5760006040517f57f447ce0000000000000000000000000000000000000000000000000000000081526004016112b29190612ab2565b60405180910390fd5b600073ffffffffffffffffffffffffffffffffffffffff168573ffffffffffffffffffffffffffffffffffffffff160361132d5760006040517f01a835140000000000000000000000000000000000000000000000000000000081526004016113249190612ab2565b60405180910390fd5b61133a858585858561191d565b5050505050565b600060208202602084010151905092915050565b600060208202602084010151905092915050565b611371611241565b73ffffffffffffffffffffffffffffffffffffffff1661138f610bb5565b73ffffffffffffffffffffffffffffffffffffffff16146113ee576113b2611241565b6040517f118cdaa70000000000000000000000000000000000000000000000000000000081526004016113e59190612ab2565b60405180910390fd5b565b6000600360009054906101000a900473ffffffffffffffffffffffffffffffffffffffff16905081600360006101000a81548173ffffffffffffffffffffffffffffffffffffffff021916908373ffffffffffffffffffffffffffffffffffffffff1602179055508173ffffffffffffffffffffffffffffffffffffffff168173ffffffffffffffffffffffffffffffffffffffff167f8be0079c531659141344cd1fd0a4f28419497f9722a3daafe3b4186f6b6457e060405160405180910390a35050565b600073ffffffffffffffffffffffffffffffffffffffff168273ffffffffffffffffffffffffffffffffffffffff16036115285760006040517fced3e10000000000000000000000000000000000000000000000000000000000815260040161151f9190612ab2565b60405180910390fd5b80600160008573ffffffffffffffffffffffffffffffffffffffff1673ffffffffffffffffffffffffffffffffffffffff16815260200190815260200160002060008473ffffffffffffffffffffffffffffffffffffffff1673ffffffffffffffffffffffffffffffffffffffff16815260200190815260200160002060006101000a81548160ff0219169083151502179055508173ffffffffffffffffffffffffffffffffffffffff168373ffffffffffffffffffffffffffffffffffffffff167f17307eab39ab6107e8899845ad3d59bd9653f200f220920489ca2b5937696c318360405161161991906122c7565b60405180910390a3505050565b600073ffffffffffffffffffffffffffffffffffffffff168473ffffffffffffffffffffffffffffffffffffffff16036116985760006040517f57f447ce00000000000000000000000000000000000000000000000000000000815260040161168f9190612ab2565b60405180910390fd5b6000806116a585856119cf565b915091506116b760008784848761191d565b505050505050565b600073ffffffffffffffffffffffffffffffffffffffff168473ffffffffffffffffffffffffffffffffffffffff16036117315760006040517f57f447ce0000000000000000000000000000000000000000000000000000000081526004016117289190612ab2565b60405180910390fd5b600073ffffffffffffffffffffffffffffffffffffffff168573ffffffffffffffffffffffffffffffffffffffff16036117a35760006040517f01a8351400000000000000000000000000000000000000000000000000000000815260040161179a9190612ab2565b60405180910390fd5b6000806117b085856119cf565b915091506117c1878784848761191d565b50505050505050565b600080600090507a184f03e93ff9f4daa797ed6e38ed64bf6a1f0100000000000000008310611828577a184f03e93ff9f4daa797ed6e38ed64bf6a1f010000000000000000838161181e5761181d6133c8565b5b0492506040810190505b6d04ee2d6d415b85acef81000000008310611865576d04ee2d6d415b85acef8100000000838161185b5761185a6133c8565b5b0492506020810190505b662386f26fc10000831061189457662386f26fc10000838161188a576118896133c8565b5b0492506010810190505b6305f5e10083106118bd576305f5e10083816118b3576118b26133c8565b5b0492506008810190505b61271083106118e25761271083816118d8576118d76133c8565b5b0492506004810190505b6064831061190557606483816118fb576118fa6133c8565b5b0492506002810190505b600a8310611914576001810190505b80915050919050565b611929858585856119ff565b600073ffffffffffffffffffffffffffffffffffffffff168473ffffffffffffffffffffffffffffffffffffffff16146119c8576000611967611241565b905060018451036119b757600061198860008661135590919063ffffffff16565b905060006119a060008661135590919063ffffffff16565b90506119b0838989858589611dad565b50506119c6565b6119c5818787878787611f61565b5b505b5050505050565b60608060405191506001825283602083015260408201905060018152826020820152604081016040529250929050565b8051825114611a4957815181516040517f5b059991000000000000000000000000000000000000000000000000000000008152600401611a40929190613264565b60405180910390fd5b6000611a53611241565b905060005b8351811015611c68576000611a76828661135590919063ffffffff16565b90506000611a8d838661135590919063ffffffff16565b9050600073ffffffffffffffffffffffffffffffffffffffff168873ffffffffffffffffffffffffffffffffffffffff1614611bba57600080600084815260200190815260200160002060008a73ffffffffffffffffffffffffffffffffffffffff1673ffffffffffffffffffffffffffffffffffffffff16815260200190815260200160002054905081811015611b6257888183856040517f03dee4c5000000000000000000000000000000000000000000000000000000008152600401611b5994939291906133f7565b60405180910390fd5b81810360008085815260200190815260200160002060008b73ffffffffffffffffffffffffffffffffffffffff1673ffffffffffffffffffffffffffffffffffffffff16815260200190815260200160002081905550505b600073ffffffffffffffffffffffffffffffffffffffff168773ffffffffffffffffffffffffffffffffffffffff1614611c55578060008084815260200190815260200160002060008973ffffffffffffffffffffffffffffffffffffffff1673ffffffffffffffffffffffffffffffffffffffff1681526020019081526020016000206000828254611c4d9190613328565b925050819055505b505080611c6190612ef1565b9050611a58565b506001835103611d27576000611c8860008561135590919063ffffffff16565b90506000611ca060008561135590919063ffffffff16565b90508573ffffffffffffffffffffffffffffffffffffffff168773ffffffffffffffffffffffffffffffffffffffff168473ffffffffffffffffffffffffffffffffffffffff167fc3d58168c5ae7397731d063d5bbf3d657854427343f4c083240f7aacaa2d0f628585604051611d18929190613264565b60405180910390a45050611da6565b8373ffffffffffffffffffffffffffffffffffffffff168573ffffffffffffffffffffffffffffffffffffffff168273ffffffffffffffffffffffffffffffffffffffff167f4a39dc06d4c0dbc64b70af90fd698a233a518aa5d07e595d983b8c0526c8f7fb8686604051611d9d92919061343c565b60405180910390a45b5050505050565b60008473ffffffffffffffffffffffffffffffffffffffff163b1115611f59578373ffffffffffffffffffffffffffffffffffffffff1663f23a6e6187878686866040518663ffffffff1660e01b8152600401611e0e9594939291906134c8565b6020604051808303816000875af1925050508015611e4a57506040513d601f19601f82011682018060405250810190611e479190613537565b60015b611ece573d8060008114611e7a576040519150601f19603f3d011682016040523d82523d6000602084013e611e7f565b606091505b506000815103611ec657846040517f57f447ce000000000000000000000000000000000000000000000000000000008152600401611ebd9190612ab2565b60405180910390fd5b805160208201fd5b63f23a6e6160e01b7bffffffffffffffffffffffffffffffffffffffffffffffffffffffff1916817bffffffffffffffffffffffffffffffffffffffffffffffffffffffff191614611f5757846040517f57f447ce000000000000000000000000000000000000000000000000000000008152600401611f4e9190612ab2565b60405180910390fd5b505b505050505050565b60008473ffffffffffffffffffffffffffffffffffffffff163b111561210d578373ffffffffffffffffffffffffffffffffffffffff1663bc197c8187878686866040518663ffffffff1660e01b8152600401611fc2959493929190613564565b6020604051808303816000875af1925050508015611ffe57506040513d601f19601f82011682018060405250810190611ffb9190613537565b60015b612082573d806000811461202e576040519150601f19603f3d011682016040523d82523d6000602084013e612033565b606091505b50600081510361207a57846040517f57f447ce0000000000000000000000000000000000000000000000000000000081526004016120719190612ab2565b60405180910390fd5b805160208201fd5b63bc197c8160e01b7bffffffffffffffffffffffffffffffffffffffffffffffffffffffff1916817bffffffffffffffffffffffffffffffffffffffffffffffffffffffff19161461210b57846040517f57f447ce0000000000000000000000000000000000000000000000000000000081526004016121029190612ab2565b60405180910390fd5b505b505050505050565b6000604051905090565b600080fd5b600080fd5b600073ffffffffffffffffffffffffffffffffffffffff82169050919050565b600061215482612129565b9050919050565b61216481612149565b811461216f57600080fd5b50565b6000813590506121818161215b565b92915050565b6000819050919050565b61219a81612187565b81146121a557600080fd5b50565b6000813590506121b781612191565b92915050565b600080604083850312156121d4576121d361211f565b5b60006121e285828601612172565b92505060206121f3858286016121a8565b9150509250929050565b61220681612187565b82525050565b600060208201905061222160008301846121fd565b92915050565b60007fffffffff0000000000000000000000000000000000000000000000000000000082169050919050565b61225c81612227565b811461226757600080fd5b50565b60008135905061227981612253565b92915050565b6000602082840312156122955761229461211f565b5b60006122a38482850161226a565b91505092915050565b60008115159050919050565b6122c1816122ac565b82525050565b60006020820190506122dc60008301846122b8565b92915050565b6000602082840312156122f8576122f761211f565b5b6000612306848285016121a8565b91505092915050565b600081519050919050565b600082825260208201905092915050565b60005b8381101561234957808201518184015260208101905061232e565b60008484015250505050565b6000601f19601f8301169050919050565b60006123718261230f565b61237b818561231a565b935061238b81856020860161232b565b61239481612355565b840191505092915050565b600060208201905081810360008301526123b98184612366565b905092915050565b600060ff82169050919050565b6123d7816123c1565b82525050565b600060c08201905081810360008301526123f78189612366565b905061240660208301886121fd565b61241360408301876121fd565b61242060608301866123ce565b81810360808301526124328185612366565b905061244160a08301846122b8565b979650505050505050565b600080fd5b600080fd5b600080fd5b60008083601f8401126124715761247061244c565b5b8235905067ffffffffffffffff81111561248e5761248d612451565b5b6020830191508360018202830111156124aa576124a9612456565b5b9250929050565b6124ba816123c1565b81146124c557600080fd5b50565b6000813590506124d7816124b1565b92915050565b600080600080600080600060a0888a0312156124fc576124fb61211f565b5b600088013567ffffffffffffffff81111561251a57612519612124565b5b6125268a828b0161245b565b975097505060206125398a828b016121a8565b955050604061254a8a828b016121a8565b945050606061255b8a828b016124c8565b935050608088013567ffffffffffffffff81111561257c5761257b612124565b5b6125888a828b0161245b565b925092505092959891949750929550565b7f4e487b7100000000000000000000000000000000000000000000000000000000600052604160045260246000fd5b6125d182612355565b810181811067ffffffffffffffff821117156125f0576125ef612599565b5b80604052505050565b6000612603612115565b905061260f82826125c8565b919050565b600067ffffffffffffffff82111561262f5761262e612599565b5b602082029050602081019050919050565b600061265361264e84612614565b6125f9565b9050808382526020820190506020840283018581111561267657612675612456565b5b835b8181101561269f578061268b88826121a8565b845260208401935050602081019050612678565b5050509392505050565b600082601f8301126126be576126bd61244c565b5b81356126ce848260208601612640565b91505092915050565b600080fd5b600067ffffffffffffffff8211156126f7576126f6612599565b5b61270082612355565b9050602081019050919050565b82818337600083830152505050565b600061272f61272a846126dc565b6125f9565b90508281526020810184848401111561274b5761274a6126d7565b5b61275684828561270d565b509392505050565b600082601f8301126127735761277261244c565b5b813561278384826020860161271c565b91505092915050565b600080600080600060a086880312156127a8576127a761211f565b5b60006127b688828901612172565b95505060206127c788828901612172565b945050604086013567ffffffffffffffff8111156127e8576127e7612124565b5b6127f4888289016126a9565b935050606086013567ffffffffffffffff81111561281557612814612124565b5b612821888289016126a9565b925050608086013567ffffffffffffffff81111561284257612841612124565b5b61284e8882890161275e565b9150509295509295909350565b6000602082840312156128715761287061211f565b5b600061287f84828501612172565b91505092915050565b600067ffffffffffffffff8211156128a3576128a2612599565b5b602082029050602081019050919050565b60006128c76128c284612888565b6125f9565b905080838252602082019050602084028301858111156128ea576128e9612456565b5b835b8181101561291357806128ff8882612172565b8452602084019350506020810190506128ec565b5050509392505050565b600082601f8301126129325761293161244c565b5b81356129428482602086016128b4565b91505092915050565b600080604083850312156129625761296161211f565b5b600083013567ffffffffffffffff8111156129805761297f612124565b5b61298c8582860161291d565b925050602083013567ffffffffffffffff8111156129ad576129ac612124565b5b6129b9858286016126a9565b9150509250929050565b600081519050919050565b600082825260208201905092915050565b6000819050602082019050919050565b6129f881612187565b82525050565b6000612a0a83836129ef565b60208301905092915050565b6000602082019050919050565b6000612a2e826129c3565b612a3881856129ce565b9350612a43836129df565b8060005b83811015612a74578151612a5b88826129fe565b9750612a6683612a16565b925050600181019050612a47565b5085935050505092915050565b60006020820190508181036000830152612a9b8184612a23565b905092915050565b612aac81612149565b82525050565b6000602082019050612ac76000830184612aa3565b92915050565b612ad6816122ac565b8114612ae157600080fd5b50565b600081359050612af381612acd565b92915050565b60008060408385031215612b1057612b0f61211f565b5b6000612b1e85828601612172565b9250506020612b2f85828601612ae4565b9150509250929050565b600080600060608486031215612b5257612b5161211f565b5b6000612b60868287016121a8565b9350506020612b7186828701612172565b9250506040612b82868287016121a8565b9150509250925092565b60008060408385031215612ba357612ba261211f565b5b6000612bb185828601612172565b9250506020612bc285828601612172565b9150509250929050565b600080600080600060a08688031215612be857612be761211f565b5b6000612bf688828901612172565b9550506020612c0788828901612172565b9450506040612c18888289016121a8565b9350506060612c29888289016121a8565b925050608086013567ffffffffffffffff811115612c4a57612c49612124565b5b612c568882890161275e565b9150509295509295909350565b600081905092915050565b7f68747470733a2f2f6170692e6578616d706c652e636f6d2f6d6574616461746160008201527f2f00000000000000000000000000000000000000000000000000000000000000602082015250565b6000612cca602183612c63565b9150612cd582612c6e565b602182019050919050565b6000612ceb8261230f565b612cf58185612c63565b9350612d0581856020860161232b565b80840191505092915050565b7f2e6a736f6e000000000000000000000000000000000000000000000000000000600082015250565b6000612d47600583612c63565b9150612d5282612d11565b600582019050919050565b6000612d6882612cbd565b9150612d748284612ce0565b9150612d7f82612d3a565b915081905092915050565b7f4e487b7100000000000000000000000000000000000000000000000000000000600052602260045260246000fd5b60006002820490506001821680612dd157607f821691505b602082108103612de457612de3612d8a565b5b50919050565b7f4e6f742076657269666965720000000000000000000000000000000000000000600082015250565b6000612e20600c8361231a565b9150612e2b82612dea565b602082019050919050565b60006020820190508181036000830152612e4f81612e13565b9050919050565b7f4c6f7720414920636f6e666964656e6365000000000000000000000000000000600082015250565b6000612e8c60118361231a565b9150612e9782612e56565b602082019050919050565b60006020820190508181036000830152612ebb81612e7f565b9050919050565b7f4e487b7100000000000000000000000000000000000000000000000000000000600052601160045260246000fd5b6000612efc82612187565b91507fffffffffffffffffffffffffffffffffffffffffffffffffffffffffffffffff8203612f2e57612f2d612ec2565b5b600182019050919050565b60008190508160005260206000209050919050565b60006020601f8301049050919050565b600082821b905092915050565b600060088302612f9b7fffffffffffffffffffffffffffffffffffffffffffffffffffffffffffffffff82612f5e565b612fa58683612f5e565b95508019841693508086168417925050509392505050565b6000819050919050565b6000612fe2612fdd612fd884612187565b612fbd565b612187565b9050919050565b6000819050919050565b612ffc83612fc7565b61301061300882612fe9565b848454612f6b565b825550505050565b600090565b613025613018565b613030818484612ff3565b505050565b5b818110156130545761304960008261301d565b600181019050613036565b5050565b601f8211156130995761306a81612f39565b61307384612f4e565b81016020851015613082578190505b61309661308e85612f4e565b830182613035565b50505b505050565b600082821c905092915050565b60006130bc6000198460080261309e565b1980831691505092915050565b60006130d583836130ab565b9150826002028217905092915050565b6130ee8261230f565b67ffffffffffffffff81111561310757613106612599565b5b6131118254612db9565b61311c828285613058565b600060209050601f83116001811461314f576000841561313d578287015190505b61314785826130c9565b8655506131af565b601f19841661315d86612f39565b60005b8281101561318557848901518255600182019150602085019450602081019050613160565b868310156131a2578489015161319e601f8916826130ab565b8355505b6001600288020188555050505b505050505050565b60006131c3838561231a565b93506131d083858461270d565b6131d983612355565b840190509392505050565b600060808201905081810360008301526131ff81888a6131b7565b905061320e60208301876121fd565b61321b60408301866123ce565b818103606083015261322e8184866131b7565b9050979650505050505050565b60006040820190506132506000830185612aa3565b61325d6020830184612aa3565b9392505050565b600060408201905061327960008301856121fd565b61328660208301846121fd565b9392505050565b7f4e487b7100000000000000000000000000000000000000000000000000000000600052603260045260246000fd5b7f50726f6a656374206e6f74207665726966696564000000000000000000000000600082015250565b60006132f260148361231a565b91506132fd826132bc565b602082019050919050565b60006020820190508181036000830152613321816132e5565b9050919050565b600061333382612187565b915061333e83612187565b925082820190508082111561335657613355612ec2565b5b92915050565b7f4578636565647320766572696669656420434f32000000000000000000000000600082015250565b600061339260148361231a565b915061339d8261335c565b602082019050919050565b600060208201905081810360008301526133c181613385565b9050919050565b7f4e487b7100000000000000000000000000000000000000000000000000000000600052601260045260246000fd5b600060808201905061340c6000830187612aa3565b61341960208301866121fd565b61342660408301856121fd565b61343360608301846121fd565b95945050505050565b600060408201905081810360008301526134568185612a23565b9050818103602083015261346a8184612a23565b90509392505050565b600081519050919050565b600082825260208201905092915050565b600061349a82613473565b6134a4818561347e565b93506134b481856020860161232b565b6134bd81612355565b840191505092915050565b600060a0820190506134dd6000830188612aa3565b6134ea6020830187612aa3565b6134f760408301866121fd565b61350460608301856121fd565b8181036080830152613516818461348f565b90509695505050505050565b60008151905061353181612253565b92915050565b60006020828403121561354d5761354c61211f565b5b600061355b84828501613522565b91505092915050565b600060a0820190506135796000830188612aa3565b6135866020830187612aa3565b81810360408301526135988186612a23565b905081810360608301526135ac8185612a23565b905081810360808301526135c0818461348f565b9050969550505050505056fea2646970667358221220f830484ed8b3f5052c36490279603b4a01caf0f92d415f2c905fdb7739e54dd864736f6c6343000814003368747470733a2f2f6170692e6578616d706c652e636f6d2f6d657461646174612f7b69647d2e6a736f6e",
  "linkReferences": {},
  "deployedLinkReferences": {}
}